:020000040000fa
:080000000001040000000000f3
:020000040000fa
:10020000afed20000eff20000e018800000000006e
:100210000c0007008094200001002000110007005e
:10022000000020000000e000020032000000020098
:100230000000000060020200000000000040da0040
:100240000000fe004440a900200020000000e00063
:100250000300320000002000a00188004440a800f4
:100260000000060091018800800078000000eb008b
:1002700015003700e280400032a0b4009101ba00be
:10028000e280400032a0b4009102ba00e280400057
:1002900032a0b4000002eb00472bde00f507b200ed
:1002a000602ce10004003a000059eb008301e900f2
:1002b000fdff3e00040037006128e100010032002c
:1002c0000082eb00040007001101ba000200e00008
:1002d000e8ff3a00000006003159ba008301e90046
:1002e0000c0032002159ba008301e90008003200f5
:1002f0000400e00003003a00e280400032a0b400b5
:10030000f5ff370011d9ba008301e900faff3a007e
:100310008100e800e180400032a0b4000000060047
:100320000040da000000fe004400f800020f200048
:10033000220288000000e9001201c30000800800ca
:1003400001000000310278001001f0000000cd0033
:080350004400f9000000060062
:020000040000fa
:0200000401f009
:04000000f7bf000046
:020000040000fa
:0200000401f009
:04000400ff7f00007a
:020000040000fa
:0200000401f009
:040008007c7f0000f9
:020000040000fa
:0200000401f009
:04001400ffff0000ea
:020000040000fa
:1000080090010000900100009001000090010000a4
:100018009001000090010000900100009001000094
:1000280090010000900100009001000034050000dc
:100038009001000090010000900100009001000074
:10004800fa070000860500007c050000900100000a
:100058009001000090010000900100009001000054
:100068009001000090010000900100009001000044
:100078009001000090010000900100009001000034
:100088009001000090010000900100009001000024
:100098009001000090010000900100009001000014
:1000a8009001000090010000900100009001000004
:1000b80090010000900100009001000090010000f4
:1000c80090010000900100009001000090010000e4
:1000d80090010000900100009001000090010000d4
:1000e80090010000900100009001000090010000c4
:0800f8009001000090010000de
:020000040000fa
:1001080090010000900100009001000090010000a3
:100118009001000090010000900100009001000093
:1001280090010000900100009001000034050000db
:100138009001000090010000900100009001000073
:10014800fa070000860500007c0500009001000009
:100158009001000090010000900100009001000053
:100168009001000090010000900100009001000043
:100178009001000090010000900100009001000033
:100188009001000090010000900100009001000023
:100198009001000090010000900100009001000013
:1001a8009001000090010000900100009001000003
:1001b80090010000900100009001000090010000f3
:1001c80090010000900100009001000090010000e3
:1001d80090010000900100009001000090010000d3
:1001e80090010000900100009001000090010000c3
:0801f8009001000090010000dd
:020000040000fa
:040358008000000021
:020000040000fa
:10035c000000fa0021e2a90021a2a90023c2a900f1
:10036c0023a2a8002362a8002342a8002322a900ec
:10037c0022e2a90022c2a90022a2a90021e2a8001f
:10038c000080fa00000006000000fa0081e0a900dd
:10039c0083e0a9008d00a8008d20a8008d40a80046
:1003ac0098c0bf007040b30098e0b70081092000ee
:1003bc009140780000c7b30000c0700098e0b7000f
:1003cc005109200091407800f0c8b30000c06000d3
:1003dc0001c5b3000140700095e0b7000000eb00d0
:1003ec0030168800de42a800de62a900cdc2a8004b
:1003fc00cda2a900ca02a900ca62a9000080fa0015
:10040c00000006000000fa000de2a9000da2a900f0
:10041c000d42a8000ce2a8000cc2a9000ca2a90075
:10042c000c22a9000c42a9000c02a9008d20a800e6
:10043c008d40a9008520a9008540a9000fe2a900e4
:10044c000f62a9000f42a9000ec2a9000ee2a9007a
:10045c000ea2a90010002000a01088000de2a80038
:10046c000f42a8000080fa00000006000000fa000d
:10047c000000eb002008880005e1a90005a1a900f7
:10048c0004c1a9004110200091407800f0ccb300c9
:10049c0000c060000044a00004e1b7000441a900c2
:1004ac000421a9008460a9008c60a8000080fa00d7
:1004bc00000006000000fa00a5ff0700b2ff0700cd
:1004cc00d0ff0700e9ff0700accebf000004e0003e
:1004dc00fdff320005e1a8000000370050758000d8
:1004ec000000e000c7003a00c8cebf000004e000e6
:1004fc00faff3a000040eb00c9eeb7000000eb0039
:10050c00207588000fc2bf00614060000004e0004d
:10051c00fcff32000080eb00801088000fc2bf008f
:10052c00614060000004e000fcff32001006200077
:10053c008010880010c0b300d8eeb70010c0b30014
:10054c00c8eeb700d8cebf00e14f5000fdff32001f
:10055c000000000000000000cac2bf0090768000be
:10056c000000e8009076880090768000ea0f50003a
:10057c000e0034000fc2bf00614060000004e000b8
:10058c00fcff32000080eb00801088000fc2bf001f
:10059c00614060000004e000fcff320020072000f6
:1005ac00801088000000eb0090768800d0748000ea
:1005bc00e1748000f074880001758800f07480008c
:1005cc0001758000e00f5000e08f580003003d00e3
:1005dc006000b800f0748800017588000000eb0022
:1005ec0010758800f0748000017580004888de006a
:1005fc00cf80de008040780000c0eb0000c06000bf
:10060c0083eeb700f0748000017580004088de0036
:10061c00cf80de008040780000c0eb0000c060009e
:10062c0084eeb700f0748000017580004809dd008d
:10063c004800de0000007100c888de0080407800b1
:10064c0000c0eb0000c0600085eeb700f0748000c5
:10065c000175800086eeb7000fc2bf0061406000dc
:10066c000004e000fcff3200b0ff2f008010880077
:10067c006000b800a0768800b176880007003700cb
:10068c0000000000a0768000b17680006100400080
:10069c00e0804800a0768800b1768800a2768000c1
:1006ac00b37680003001200001002000800f510043
:1006bc00818f5900f2ff34000fc2bf00614060000f
:1006cc000004e000fcff320086cebf000000fb00ff
:1006dc00801088006000b800a0768800b176880091
:1006ec000700370000000000a0768000b176800083
:1006fc0061004000e0804800a0768800b176880058
:10070c00a2768000b376800030012000010020002a
:10071c00800f5100818f5900f2ff34000fc2bf00cf
:10072c00614060000004e000fcff320085cebf0099
:10073c000000fb00801088006000b800a0768800e4
:10074c00b17688000700370000000000a07680001a
:10075c00b176800061004000e0804800a0768800ff
:10076c00b1768800a2768000b3768000300120003c
:10077c0001002000800f5100818f5900f2ff3400de
:10078c000fc2bf00614060000004e000fcff3200bb
:10079c0084cebf000000fb00801088006000b80011
:1007ac00a0768800b17688000700370000000000b2
:1007bc00a0768000b176800061004000e0804800a7
:1007cc00a0768800b1768800a2768000b37680008f
:1007dc003001200001002000800f5100818f590052
:1007ec00f2ff34000fc2bf00614060000004e00063
:1007fc00fcff320083cebf000000fb00801088009d
:10080c0036ff370050758000e10f500033ff3a007f
:10081c00c9cebf000004e0001a003a000040eb0013
:10082c00c8eeb70010c0b300c9eeb7000000eb0073
:10083c00107588000fc2bf00614060000004e0002a
:10084c00fcff32000080eb00801088000fc2bf005c
:10085c00614060000004e000fcff3200e006200074
:10086c008010880010c0b300d8eeb700d8cebf00ff
:10087c00e14f5000fdff32000000000000000000be
:10088c00ca62a80090758000e10f500013ff3a0077
:10089c000000eb0090758800ca22a80000802000a0
:1008ac000e02070040748800517488004274800066
:1008bc00537480007074800081748000800f51002c
:1008cc00818f59000c0035000fc2bf0061406000e1
:1008dc000004e000fcff32000080eb008010880078
:1008ec000fc2bf00614060000004e000fcff32005a
:1008fc00c006200080108800407480005174800075
:10090c004888de00cf80de008040780000c0eb001d
:10091c0000c0600083eeb70040748000517480000a
:10092c004088de00cf80de008040780000c0eb0005
:10093c0000c0600084eeb7004074800051748000e9
:10094c004809dd004800de0000007100c888de00a8
:10095c008040780000c0eb0000c0600085eeb7005e
:10096c0040748000517480008040780000c0eb001f
:10097c0000c0600086eeb700107580000000e0003b
:10098c0009003a00b0748000c1748000e26f8000ee
:10099c00f36f80000200500083805800b074880010
:1009ac00c17488000b003700b2748000c3748000df
:1009bc0010758000c200dd0000a020000080400007
:1009cc001000be000000510081805900b0748800f6
:1009dc00c1748800107580004274800053748000cc
:1009ec00c200dd0000a02000008040000288be0094
:1009fc00b2748000c3748000407480005174800015
:100a0c000200400083804800b0748800c1748800e4
:100a1c00b0748000c17480004809dd004800de001d
:100a2c0000007100c888de00d0748800e174880072
:100a3c00107580000000e8001075880011758000aa
:100a4c00f00f2000808f5000020034000000eb00fb
:100a5c0010758800ca22a900a0fe3700809fbe0036
:100a6c00829fbe000000fa008460a90070758000af
:100a7c008175800061004000e0804800707588003e
:100a8c00817588007275800083758000b00120002c
:100a9c0001002000800f5100818f59000f0034009d
:100aac006000b800707588008175880050758000f2
:100abc000000e00005003a0010002000507588008e
:100acc000040eb00c9eeb700040037000000eb005b
:100adc00507588000040eb00c8eeb7000080fa00ab
:100aec004f01be004f00be00004006000000fa009f
:100afc008540a9008d40a9000080fa000040060046
:100b0c00809fbe00829fbe00849fbe001200fa0030
:100b1c008520a900901080008ceeb7000ec2bf009b
:100b2c00704060000004e000030032000e22a900b7
:100b3c00caa2a80001003700caa2a900cbcebf00f0
:100b4c00e14f5000d0003a006000b800907488006b
:100b5c00a17488008ccebf000000fb00cf80de00ab
:100b6c0090748800a1748800cacebf000004e00015
:100b7c002f003a0090748000a1748000c800dd0042
:100b8c000000200090748800a1748800907480008c
:100b9c00a17480000200200003f02f0000027800f6
:100bac008102780002007800830078000002620065
:100bbc00018062006101b8001207980023079800b9
:100bcc001e009000ae009000c000dd000000200070
:100bdc0010079800210798001e019000ae019000ac
:100bec006120b80010079800210798001e029000a1
:100bfc00ae02900004017100858171007074800058
:100c0c00817480000200400083804800707488006a
:100c1c00817488000fc2bf00614060000004e000d6
:100c2c00fcff3200b00620008010880092003700d4
:100c3c00cacebf00e14f50002f003a0090748000e4
:100c4c00a1748000c000dd000000200090748800ba
:100c5c00a174880090748000a174800002002000b0
:100c6c00f30f200000027800810278000200780067
:100c7c008300780000016200018062006102b8000c
:100c8c0034079800450798003e009000ce00900075
:100c9c00c000dd00000020003007980041079800dc
:100cac003e009000ce0090006112b800340798000e
:100cbc00450798003e019000ce01900002007000a4
:100ccc008380700072748000837480000000410087
:100cdc008180490070748800817488000fc2bf0045
:100cec00614060000004e000fcff3200b006200010
:100cfc008010880060003700cacebf00e24f500061
:100d0c0031003a0090748000a1748000c808dd00a6
:100d1c000080fd00804078000040eb00907488005b
:100d2c00a174880090748000a174800002f02f00e0
:100d3c000300200000027800810278000200780095
:100d4c008300780000016200018062006102b8003b
:100d5c0054079800650798005e009000ee00900024
:100d6c00c000dd00000020005007980061079800cb
:100d7c005e009000ee0090006112b80054079800dd
:100d8c00650798005e019000ee0190000200700073
:100d9c0083807000727480008374800000004100b6
:100dac008180490070748800817488000fc2bf0074
:100dbc00614060000004e000fcff3200b00620003f
:100dcc00801088002c00370090748000a174800083
:100ddc00f20f20000300200000027800810278004e
:100dec00020078008300780000016200018062003c
:100dfc006102b80074079800050f98007e009000ff
:100e0c008e089000c000dd000000200070079800e4
:100e1c00010f98007e0090008e0890006112b800bf
:100e2c0074079800050f98007e0190008e099000c1
:100e3c0002007000838070007274800083748000e4
:100e4c000000410081804900707488008174880022
:100e5c000fc2bf00614060000004e000fcff3200e4
:100e6c00b0062000801088000040eb00cbeeb700ed
:100e7c000040eb00caeeb700cacebf000040e8004d
:100e8c00caeeb7004a0037008ccebf000000fb0052
:100e9c00000f7800000720009e017800808f510021
:100eac003c003200000720001e027800800f520028
:100ebc0009003c00300620009e027800808f520012
:100ecc0026003200700620009e007800808f5000b3
:100edc001800320033003700200720001e01780074
:100eec00800f51002e003200200720009e01780058
:100efc00808f510024003500300720001e0278003e
:100f0c00800f520001003200260037000000eb0079
:100f1c00507588000040eb00c8eeb70000000000e0
:100f2c0000000000ca82a9000000000000000000c0
:100f3c001f00370010c0b300aceeb7000040eb0050
:100f4c00c9eeb7000000000000000000ca82a90032
:100f5c0000000000000000001500370010c0b300b6
:100f6c00cbeeb7000040eb00caeeb7000fc2bf00db
:100f7c00614060000004e000fcff320030062000fd
:100f8c00801088000a0037000040eb00d8eeb70054
:100f9c00070037000040eb00d8eeb7000400370024
:100fac00ca02a800ca82a8000000000000000000cd
:100fbc000ec2bf00704060000004e000030032006d
:100fcc000e22a900caa2a80001003700caa2a900db
:100fdc008520a9000080fa004f02be004f01be0020
:100fec004f00be0000400600809fbe00829fbe00e6
:100ffc00841f78000000fa008500a900ca42a800ee
:10100c00c005200001002000207688003176880081
:10101c0020758000c200dd000080200000814000af
:10102c006000b8000089be002075800000027800c6
:10103c00c200dd0000802000008040001000be00d7
:10104c000001be00c205b0000380b000c220dd006c
:10105c0000802000008040000288be0020758000c7
:10106c000000e8002075880021758000f007200042
:10107c00808f5000040034000000eb0020758800c5
:10108c001000200090758800ca42a900507580009d
:10109c000000e00005003a00c8cebf00e14f500050
:1010ac0009003a00ca62a900070037005075800099
:1010bc00e10f500004003a00c9cebf00e14f5000d0
:1010cc0001003a00ca62a8000080fa004f027800c2
:1010dc004f01be004f00be00004006000400fa00a5
:1010ec00889fbe00100798000000eb00000f7800ee
:1010fc006000b800a0758800b17588006000b80069
:10110c0000768800117688000000eb00000f780054
:10111c00200037001e0078004200dd0080007800bf
:10112c001e009000008040001000be00c0758800ba
:10113c00d1758800c8758000d9758000c67580008f
:10114c00d77580008800780006007800000ab80087
:10115c0007c0b900050178000001410009b0b900d1
:10116c000001410082027800e4758800f575880062
:10117c000276800013768000e0758000f1758000a7
:10118c0002004000838048000076880011768800b9
:10119c001e0fe800f00720009e0f1000ddff34004a
:1011ac0000768000117680004909dd004700de00e2
:1011bc0000007100c788de00a0758800b17588003a
:1011cc00a0758000b17580004f04be000080fa004d
:1011dc00000006000600fa0010079800210798008e
:1011ec000000eb00000f78006000b800f07488007d
:1011fc00017588002e0090000000e00002003c0009
:10120c0000102000200798000000eb00000f780071
:10121c000d0037001e0078004200dd0080007800d1
:10122c001e009000008040001001be00f074800091
:10123c00017580000200400083804800f074880033
:10124c00017588001e0fe8002e0090009e0f100004
:10125c00f0ff3500f0748000017580004809dd0056
:10126c004800de0000007100c888de00f0748800c1
:10127c0001758800f0748000017580000080fa0010
:04128c000000060058
:020000040000fa
:101290008e0e00004c000000020000000000000064
:1012a000000000000000000000000000000000003e
:1012b000000000000000000000000000000000002e
:1012c000000000000000000000000000000000001e
:1012d000000000000000000000000000000000000e
:1012e00000000000000000000001000000000100fc
:1012f00000000000000000000000000000000000ee
:1013000000000000000800008e0600000000000041
:0413100000000000d9
:00000001FF
